{
  "contractName": "Reader",
  "abi": [
    {
      "constant": true,
      "inputs": [
        {
          "internalType": "address",
          "name": "walletAddress",
          "type": "address"
        },
        {
          "internalType": "address[]",
          "name": "tokens",
          "type": "address[]"
        }
      ],
      "name": "getBalances",
      "outputs": [
        {
          "components": [
            {
              "internalType": "address",
              "name": "token",
              "type": "address"
            },
            {
              "internalType": "uint256",
              "name": "balance",
              "type": "uint256"
            }
          ],
          "internalType": "struct Reader.TokenBalance[]",
          "name": "",
          "type": "tuple[]"
        }
      ],
      "payable": false,
      "stateMutability": "view",
      "type": "function"
    }
  ],
  "bytecode": "0x608060405234801561001057600080fd5b5061055c806100206000396000f3fe608060405234801561001057600080fd5b506004361061002b5760003560e01c80636a385ae914610030575b600080fd5b61004a60048036036100459190810190610295565b610060565b60405161005791906103ff565b60405180910390f35b606080825160405190808252806020026020018201604052801561009e57816020015b61008b6101b8565b8152602001906001900390816100835790505b50905060008090505b83518110156101ad5760405180604001604052808583815181106100c757fe5b602002602001015173ffffffffffffffffffffffffffffffffffffffff1681526020018583815181106100f657fe5b602002602001015173ffffffffffffffffffffffffffffffffffffffff166370a08231886040518263ffffffff1660e01b815260040161013691906103e4565b60206040518083038186803b15801561014e57600080fd5b505afa158015610162573d6000803e3d6000fd5b505050506040513d601f19601f8201168201806040525061018691908101906102e9565b81525082828151811061019557fe5b602002602001018190525080806001019150506100a7565b508091505092915050565b6040518060400160405280600073ffffffffffffffffffffffffffffffffffffffff168152602001600081525090565b6000813590506101f7816104eb565b92915050565b600082601f83011261020e57600080fd5b813561022161021c8261044e565b610421565b9150818183526020840193506020810190508385602084028201111561024657600080fd5b60005b83811015610276578161025c88826101e8565b845260208401935060208301925050600181019050610249565b5050505092915050565b60008151905061028f81610502565b92915050565b600080604083850312156102a857600080fd5b60006102b6858286016101e8565b925050602083013567ffffffffffffffff8111156102d357600080fd5b6102df858286016101fd565b9150509250929050565b6000602082840312156102fb57600080fd5b600061030984828501610280565b91505092915050565b600061031e83836103a6565b60408301905092915050565b610333816104af565b82525050565b610342816104af565b82525050565b600061035382610486565b61035d818561049e565b935061036883610476565b8060005b838110156103995781516103808882610312565b975061038b83610491565b92505060018101905061036c565b5085935050505092915050565b6040820160008201516103bc600085018261032a565b5060208201516103cf60208501826103d5565b50505050565b6103de816104e1565b82525050565b60006020820190506103f96000830184610339565b92915050565b600060208201905081810360008301526104198184610348565b905092915050565b6000604051905081810181811067ffffffffffffffff8211171561044457600080fd5b8060405250919050565b600067ffffffffffffffff82111561046557600080fd5b602082029050602081019050919050565b6000819050602082019050919050565b600081519050919050565b6000602082019050919050565b600082825260208201905092915050565b60006104ba826104c1565b9050919050565b600073ffffffffffffffffffffffffffffffffffffffff82169050919050565b6000819050919050565b6104f4816104af565b81146104ff57600080fd5b50565b61050b816104e1565b811461051657600080fd5b5056fea365627a7a723158200d36653d3fd67866e7006c746ca613facafcc65504e0e516d3cfdebdec7d5aa96c6578706572696d656e74616cf564736f6c63430005100040",
  "source": "// SPDX-License-Identifier: MIT\r\n\r\npragma solidity >=0.4.0;\r\npragma experimental ABIEncoderV2;\r\n\r\ninterface ERC20Basic {\r\n    function balanceOf(address tokenOwner) external view returns (uint256);\r\n}\r\n\r\ncontract Reader {\r\n\r\n    struct TokenBalance {\r\n        address token;\r\n        uint256 balance;\r\n    }\r\n\r\n    function getBalances(address walletAddress, address[] memory tokens) public view returns (TokenBalance[] memory) {\r\n            TokenBalance[] memory res = new TokenBalance[](tokens.length);\r\n            for (uint i = 0; i < tokens.length; i++) {\r\n                res[i] = TokenBalance(\r\n                    tokens[i], \r\n                    ERC20Basic(tokens[i]).balanceOf(walletAddress)\r\n                );\r\n            }\r\n            return res;\r\n    }\r\n}",
  "sourcePath": "/home/russellcxl/go/src/github.com/russellcxl/switcheo/src/problem5/contracts/Reader.sol",
  "compiler": {
    "name": "solc",
    "version": "0.5.16+commit.9c3226ce.Emscripten.clang"
  },
  "schemaVersion": "3.4.8",
  "updatedAt": "2022-07-06T03:25:32.770Z",
  "networkType": "ethereum",
  "devdoc": {
    "methods": {}
  },
  "userdoc": {
    "methods": {}
  }
}